:1000000000308A001A280000223084008313000880
:10001000031917280630F800F701F70B0D28F80B25
:100020000C287B30F700F70B1328800B0A288A1165
:100030000A124928A00183161F149F141F159F112F
:1000400007309C0083131F3083050912831294121A
:100050000130940000308316940083129001F80060
:10006000920000308316920083121F10F030970523
:100070009D050030831687008800013085008312BB
:1000800087018801203088060230A100FA30A200E2
:100090000428A10B4628A0010518A00A200B52280D
:0A00A00087155328871142286300DA
:02400E00323F3F
:00000001FF
;PIC16F877A
;CRC=9475  CREATED="26-Oct-20 19:39"
